:0300000002019F5B
:0C019F00787FE4F6D8FD7581200201E6AF
:1004570009080C040602030101030206040C08093B
:0304C10001080A25
:10044200C28EE589540F4420F589758DFD758BFDAB
:05045200C2ABD28E22B6
:0C049100D29C759850D2AFD2AC0204424D
:0A04A9008F993099FDC299D2AC2260
:0B0334003CF583E493F5A0AF16AE1576
:10033F00EF1FAA0670011E4A600DE4FDC3ED648035
:07034F00948A50EC0D80F5CB
:010356002284
:08022B008C138D148A158B164B
:10023300EF4E7034F517F518C3E5189514E51364FC
:1002430080F8E5176480985054AE17AF187C007D92
:100253000812011474572DF582740412033405181F
:10026300E51870D4051780D0E4F517F518C3E51821
:100273009514E5136480F8E517648098501FAE1752
:10028300AF187C007D08120114745F2DF58274048D
:0D0293001203340518E51870D4051780D04B
:0102A000223B
:100003008B158A1689178C188D19C3E5186480948B
:1000130080500FC3E49519F519E49518F518742D5C
:100023008008AB15AA16A9177420120102AE18AFE7
:10003300197C277D10120114EF2430FFAB1505172F
:10004300E51770020516F9AA16EF120102AE18AFF2
:10005300197C277D101201148C188D19AE18AF1955
:100063007C037DE8120114EF2430FFAB150517E57F
:100073001770020516F9AA16EF120102AE18AF198E
:100083007C037DE81201148C188D19AE18AF197C0E
:10009300007D64120114EF2430FFAB150517E5173B
:1000A30070020516F9AA16EF120102AE18AF197CF9
:1000B300007D641201148C188D19AE18AF197C00E1
:1000C3007D0A120114EF2430FFAB150517E51770F5
:1000D300020516F9AA16EF120102AE18AF197C0039
:1000E3007D0A1201148C188D19E5192430FFAB1504
:0F00F3000517E51770020516F9AA16EF020102AC
:1003F900758921758DFD758BFD759850D2BCD28C90
:09040900D28ED2A9D2ACD2AF22EE
:0804B3008F993099FDC29922D6
:10039C00E4FDFCC3ED9FEC9E5015E4FBFA0BBB0097
:0F03AC00010AEB64794A70F50DBD00010C80E485
:0103BB00221F
:0604BB0000000000002219
:0F046700D281D2801204BBC2811204BBC2802298
:0C049D00C281D2801204BBD2810204BBD9
:0E047600A2009281D2801204BBC2800204BB9D
:0D048400D2801204BBA281C2801204BB22F0
:10041200E4FEEF25E0FF9281D2801204BBC280127B
:0904220004BB0EBE08EC020484C8
:1003DB00E4FFD281FEEF25E0FFD2801204BBA281A5
:0D03EB00E4334207C2801204BB0EBE08E8D6
:0103F80022E2
:10042B00AC071204677FD2120412AF04120412AF8E
:07043B000512041202049DEA
:02035700AD07F0
:100359001204677FD2120412AF0512041212046745
:100369007FD31204121203DBD20012047612049D09
:010379002261
:10037A00E4FD7F6B12042B7D077F1912042B1D7F6E
:10038A001A12042B7D187F1B12042B7D017F1C027D
:02039A00042B32
:0202F900AC0750
:1002FB00120357AB07EC04FF120357AD07EBFE7C61
:10030B0000E42DF514EC3EF5137B007A00790BAD70
:10031B0014FC120003E4FE740B2EF8E6FF1204A982
:08032B000EBE06F3AE13AF1481
:0103330022A7
:1003BC007FF47E0112039C12037A7F967E00120357
:0F03CC009C7F471202F97F147E0012039C80F27F
:1002A1007FF47E0112039C12049112037A7F47129C
:1002B10002F98E118F127C007D0A1201148E118FAA
:1002C10012D3E5129400E51164809480400D7B0AFD
:1002D1007A00AD12AC11E4FFFE8011C3E49512FD6A
:1002E100E49511FC7B0A7A007F017E0012022B7FCC
:0802F100647E0012039C80B53D
:1001AB000202A1E493A3F8E493A34003F68001F2C7
:1001BB0008DFF48029E493A3F85407240CC8C33355
:1001CB00C4540F4420C8834004F456800146F6DF24
:1001DB00E4800B01020408102040809004C1E47EEF
:1001EB00019360BCA3FF543F30E509541FFEE49319
:1001FB00A360010ECF54C025E060A840B8E493A3E0
:10020B00FAE493A3F8E493A3C8C582C8CAC583CA0A
:10021B00F0A3C8C582C8CAC583CADFE9DEE780BEC2
:0104C4000037
:10010200BB010689828A83F0225002F722BBFE01DC
:02011200F322D6
:10011400C2D5EC30E709B2D5E4C39DFDE49CFCEE06
:1001240030E715B2D5E4C39FFFE49EFE12014AC333
:10013400E49DFDE49CFC800312014A30D507C3E42E
:060144009FFFE49EFE2275
:10014A00BC000BBE0029EF8DF084FFADF022E4CC99
:10015A00F875F008EF2FFFEE33FEEC33FCEE9DEC62
:10016A00984005FCEE9DFE0FD5F0E9E4CEFD22EDA8
:10017A00F8F5F0EE8420D21CFEADF075F008EF2FF2
:10018A00FFED33FD4007985006D5F0F222C398FDE3
:05019A000FD5F0EA2280
:00000001FF
