:0300000002037A7E
:0C037A00787FE4F6D8FD75813A0203C1DB
:10071F0009080C040602030101030206040C080970
:0B072F003F065B4F666D7D077F6F404B
:03080200011301DE
:0B067A003CF583E493F5A0AF38AE37E9
:10068500EF1FAA0670011E4A600DE4FDC3ED6480EC
:07069500948A50EC0D80F582
:01069C00223B
:08047D008C358D368A378B386F
:10048500EF4E7034F539F53AC3E53A9536E53564FE
:1004950080F8E5396480985054AE39AF3A7C007DD8
:1004A50008120261741F2DF582740712067A053A47
:1004B500E53A70D4053980D0E4F539F53AC3E53A23
:1004C5009536E5356480F8E539648098501FAE3976
:1004D500AF3A7C007D0812026174272DF5827407FE
:0D04E50012067A053AE53A70D4053980D048
:0104F20022E7
:0402EC008E2B8F2C9A
:1002F000E4FAFC7D0A1202618E2B8F2C7C007D0AB1
:1003000012024F8E2B8F2C7B047D041202618E2BE8
:100310008F2C7C007D027F047E00120261D3E52CCD
:100320009FEE6480F8E52B648098400AE52C9BF5ED
:100330002CE52B9AF52BD3E52C9400E52B648094C7
:1003400080400D7B0A7A00AD2CAC2BE4FFFE8026AA
:10035000AE2BAF2C7C007D05120261EF252CF52C15
:10036000EE352BF52BC3E4952CFDE4952BFC7B0A95
:090370007A007F017E0012047D79
:010379002261
:10078300C28EE589540F4420F589758DFD758BFD67
:05079300C2ABD28E2272
:0C07D200D29C759850D2AFD2AC020783C5
:03002300020406CE
:10040600C0E0C0F0C083C082C0D075D000C000C0BC
:0D04160001C002C003C004C005C006C0073D
:1004230030983CC298A999E975F011A485F033F589
:1004330034D39400E53364809480400E7B0A7A00C1
:10044300AD34AC337F017E008010C3E49534FDE40A
:0F0453009533FC7B0A7A00E4FFFE12047DC2ACF5
:10046200D007D006D005D004D003D002D001D000EE
:0B047200D0D0D082D083D0F0D0E03298
:0A07EA008F993099FDC299D2AC221C
:040026008E088F09A8
:10002A0075100075110075120AC3E5086480948082
:10003A005015C3E49509F509E49508F508AB10AA2B
:10004A0011A912742D8008AB10AA11A912742012DA
:10005A00023DAE08AF097C277D10120261EF243001
:10006A00FFAB100512E51270020511F9AA11EF1281
:10007A00023DAE08AF097C277D101202618C088D03
:10008A0009AE08AF097C037DE8120261EF2430FF54
:10009A00AB100512E51270020511F9AA11EF12024E
:1000AA003DAE08AF097C037DE81202618C088D0918
:1000BA00AE08AF097C007D64120261EF2430FFAB09
:1000CA00100512E51270020511F9AA11EF12023D8C
:1000DA00AE08AF097C007D641202618C088D09AEFE
:1000EA0008AF097C007D0A120261EF2430FFAB10D1
:1000FA000512E51270020511F9AA11EF12023DAEBE
:10010A0008AF097C007D0A1202618C088D09E50995
:10011A002430FFAB100512E51270020511F9AA117D
:10012A00EF12023DE4FE740A2EF8E6FF1207EA0E09
:03013A00BE06F30B
:01013D00229F
:0405F8008E2B8F2C8B
:1005FC007F231207EAE52BFF1207EAAF2C1207EA5A
:10060C00ECFF1207EAAF051207EAEAFF1207EAAF9E
:09061C00031207EA7F240207EA39
:10013E008B2D8A2E892F8C308D31C3E530648094BF
:10014E0080500FC3E49531F531E49530F530742DC0
:10015E008008AB2DAA2EA92F742012023DAE30AF0F
:10016E00317C277D10120261EF2430FFAB2D052F5D
:10017E00E52F7002052EF9AA2EEF12023DAE30AF1A
:10018E00317C277D101202618C308D31AE30AF3153
:10019E007C037DE8120261EF2430FFAB2D052FE5C5
:1001AE002F7002052EF9AA2EEF12023DAE30AF319E
:1001BE007C037DE81202618C308D31AE30AF317C24
:1001CE00007D64120261EF2430FFAB2D052FE52F69
:1001DE007002052EF9AA2EEF12023DAE30AF317C21
:1001EE00007D641202618C308D31AE30AF317C00F7
:1001FE007D0A120261EF2430FFAB2D052FE52F7023
:10020E0002052EF9AA2EEF12023DAE30AF317C0060
:10021E007D0A1202618C308D31E5312430FFAB2D19
:0F022E00052FE52F7002052EF9AA2EEF02023DD3
:10073A00758921758DFD758BFD759850D2BCD28C4B
:09074A00D28ED2A9D2ACD2AF22AA
:0807F4008F993099FDC2992292
:10000300E4FDFCC3ED9FEC9E5015E4FBFA0BBB0033
:0F001300010AEB64794A70F50DBD00010C80E421
:0100220022BB
:0607FC00000000000022D5
:0F07A800D281D2801207FCC2811207FCC28022CC
:0C07DE00C281D2801207FCD2810207FC0D
:0E07B700A2009281D2801207FCC2800207FCD1
:0D07C500D2801207FCA281C2801207FC2224
:10075300E4FEEF25E0FF9281D2801207FCC28012F3
:0907630007FC0EBE08EC0207C5FC
:10070100E4FFD281FEEF25E0FFD2801207FCA28137
:0D071100E4334207C2801207FC0EBE08E868
:01071E0022B8
:10076C00AC071207A87FD2120753AF04120753AF7E
:07077C00051207530207DE1E
:02069D00AD07A7
:10069F001207A87FD2120753AF051207531207A8EC
:1006AF007FD3120753120701D2001207B71207DECA
:0106BF002218
:1006C000E4FD7F6B12076C7D077F1912076C1D7F9D
:1006D0001A12076C7D187F1B12076C7D017F1C02AC
:0206E000076CA5
:02062500AC0720
:1006270012069DAB07EC04FF12069DAD07EBFE7C9F
:1006370000E42DF52CEC3EF52B7B007A007916AD06
:090647002CFC12013EAE2BAF2C7D
:010650002287
:1006E2007FF47E011200031206C07F967E00120084
:0F06F200037F471206257F147E0012000380F25B
:1004F300AE2BAF2C7C007D0A120261AE04AF051255
:1005030005C0AE2BAF2C7C007D0A1202618E2B8FAF
:100513002C7F017E00120540AE2BAF2C7C007D0AA0
:10052300120261AE04AF051205C0AE2BAF2C7C00E6
:0D0533007D0A1202618E2B8F2C7F017E004D
:10054000E4FDFCC3ED9FEC9E5013E4FB0BBBC8FC29
:0D055000E4FB0BBB66FC0DBD00010C80E65A
:01055D00227B
:0B05B5007F087E001205C07F087E005A
:1005C000742F2FF58274073EF583E493FF7E00C2FB
:1005D00094E4FDFCEF30E704D2958002C295C29608
:1005E00000D296EF25E0FFEE33FE0DBD00010CEDCD
:0705F00064084C70DFD29497
:0105F70022E1
:100798001205B51205B51205BC7F087E000205C01A
:040651008E2B8F2C31
:10065500852B2D852C2EC29712051F1204F312042B
:10066500F3C3E52D6480948050047F0A8003E4FF82
:04067500FE1205C0AC
:01067900225E
:10055E007FF47E011200031207D21206C07F3B12F7
:10056E0006258E218F227F3D1206258E238F247F16
:10057E003F1206258E258F267F471206258E278F42
:10058E0028AB26AA25AD24AC23AF22AE211205F846
:10059E00AF28AE27120651AF28AE271202EC7F64A9
:0705AE007E0012000380B67D
:1003860002055EE493A3F8E493A34003F68001F22A
:1003960008DFF48029E493A3F85407240CC8C33378
:1003A600C4540F4420C8834004F456800146F6DF47
:1003B600E4800B0102040810204080900802E47ECD
:1003C600019360BCA3FF543F30E509541FFEE4933C
:1003D600A360010ECF54C025E060A840B8E493A303
:1003E600FAE493A3F8E493A3C8C582C8CAC583CA2E
:1003F600F0A3C8C582C8CAC583CADFE9DEE780BEE6
:0108050000F2
:10023D00BB010689828A83F0225002F722BBFE01A0
:02024D00F3229A
:10024F00EF8DF0A4A8F0CF8CF0A428CE8DF0A42EC3
:02025F00FE227D
:10026100C2D5EC30E709B2D5E4C39DFDE49CFCEEB8
:1002710030E715B2D5E4C39FFFE49EFE120297C397
:10028100E49DFDE49CFC800312029730D507C3E492
:060291009FFFE49EFE2227
:10029700BC000BBE0029EF8DF084FFADF022E4CC4B
:1002A700F875F008EF2FFFEE33FEEC33FCEE9DEC14
:1002B700984005FCEE9DFE0FD5F0E9E4CEFD22ED5A
:1002C700F8F5F0EE8420D21CFEADF075F008EF2FA4
:1002D700FFED33FD4007985006D5F0F222C398FD95
:0502E7000FD5F0EA2232
:00000001FF
