:0300000002037A7E
:0C037A00787FE4F6D8FD75813A0203C1DB
:1007290009080C040602030101030206040C080966
:0B0739003F065B4F666D7D077F6F4041
:0307FC00011301E5
:0B0666003CF583E493F5A0AF38AE37FD
:10067100EF1FAA0670011E4A600DE4FDC3ED648000
:07068100948A50EC0D80F596
:01068800224F
:08047D008C358D368A378B386F
:10048500EF4E7034F539F53AC3E53A9536E53564FE
:1004950080F8E5396480985054AE39AF3A7C007DD8
:1004A5000812026174292DF5827407120666053A51
:1004B500E53A70D4053980D0E4F539F53AC3E53A23
:1004C5009536E5356480F8E539648098501FAE3976
:1004D500AF3A7C007D0812026174312DF5827407F4
:0D04E500120666053AE53A70D4053980D05C
:0104F20022E7
:0402EC008E2B8F2C9A
:1002F000E4FAFC7D0A1202618E2B8F2C7C007D0AB1
:1003000012024F8E2B8F2C7B047D041202618E2BE8
:100310008F2C7C007D027F047E00120261D3E52CCD
:100320009FEE6480F8E52B648098400AE52C9BF5ED
:100330002CE52B9AF52BD3E52C9400E52B648094C7
:1003400080400D7B0A7A00AD2CAC2BE4FFFE8026AA
:10035000AE2BAF2C7C007D05120261EF252CF52C15
:10036000EE352BF52BC3E4952CFDE4952BFC7B0A95
:090370007A007F017E0012047D79
:010379002261
:10078D00C28EE589540F4420F589758DFD758BFD5D
:05079D00C2ABD28E2268
:0C07CC00D29C759850D2AFD2AC02078DC1
:03002300020406CE
:10040600C0E0C0F0C083C082C0D075D000C000C0BC
:0D04160001C002C003C004C005C006C0073D
:1004230030983CC298A999E975F011A485F033F589
:1004330034D39400E53364809480400E7B0A7A00C1
:10044300AD34AC337F017E008010C3E49534FDE40A
:0F0453009533FC7B0A7A00E4FFFE12047DC2ACF5
:10046200D007D006D005D004D003D002D001D000EE
:0B047200D0D0D082D083D0F0D0E03298
:0A07E4008F993099FDC299D2AC2222
:040026008E088F09A8
:10002A0075100075110075120AC3E5086480948082
:10003A005015C3E49509F509E49508F508AB10AA2B
:10004A0011A912742D8008AB10AA11A912742012DA
:10005A00023DAE08AF097C277D10120261EF243001
:10006A00FFAB100512E51270020511F9AA11EF1281
:10007A00023DAE08AF097C277D101202618C088D03
:10008A0009AE08AF097C037DE8120261EF2430FF54
:10009A00AB100512E51270020511F9AA11EF12024E
:1000AA003DAE08AF097C037DE81202618C088D0918
:1000BA00AE08AF097C007D64120261EF2430FFAB09
:1000CA00100512E51270020511F9AA11EF12023D8C
:1000DA00AE08AF097C007D641202618C088D09AEFE
:1000EA0008AF097C007D0A120261EF2430FFAB10D1
:1000FA000512E51270020511F9AA11EF12023DAEBE
:10010A0008AF097C007D0A1202618C088D09E50995
:10011A002430FFAB100512E51270020511F9AA117D
:10012A00EF12023DE4FE740A2EF8E6FF1207E40E0F
:03013A00BE06F30B
:01013D00229F
:04060D008E2B8F2C75
:100611007F231207E4E52BFF1207E4AF2C1207E456
:10062100ECFF1207E4AF051207E4EAFF1207E4AF9B
:09063100031207E47F240207E430
:10013E008B2D8A2E892F8C308D31C3E530648094BF
:10014E0080500FC3E49531F531E49530F530742DC0
:10015E008008AB2DAA2EA92F742012023DAE30AF0F
:10016E00317C277D10120261EF2430FFAB2D052F5D
:10017E00E52F7002052EF9AA2EEF12023DAE30AF1A
:10018E00317C277D101202618C308D31AE30AF3153
:10019E007C037DE8120261EF2430FFAB2D052FE5C5
:1001AE002F7002052EF9AA2EEF12023DAE30AF319E
:1001BE007C037DE81202618C308D31AE30AF317C24
:1001CE00007D64120261EF2430FFAB2D052FE52F69
:1001DE007002052EF9AA2EEF12023DAE30AF317C21
:1001EE00007D641202618C308D31AE30AF317C00F7
:1001FE007D0A120261EF2430FFAB2D052FE52F7023
:10020E0002052EF9AA2EEF12023DAE30AF317C0060
:10021E007D0A1202618C308D31E5312430FFAB2D19
:0F022E00052FE52F7002052EF9AA2EEF02023DD3
:10074400758921758DFD758BFD759850D2BCD28C41
:09075400D28ED2A9D2ACD2AF22A0
:0807EE008F993099FDC2992298
:10000300E4FDFCC3ED9FEC9E5015E4FBFA0BBB0033
:0F001300010AEB64794A70F50DBD00010C80E421
:0100220022BB
:0607F600000000000022DB
:0F07A200D287D2861207F6C2871207F6C28622C6
:0C07D800C287D2861207F6D2870207F60D
:0E07B100A2009287D2861207F6C2860207F6D1
:0D07BF00D2861207F6A287C2861207F62224
:10075D00E4FEEF25E0FF9287D2861207F6C28612DD
:09076D0007F60EBE08EC0207BFFE
:1006ED00E4FFD287FEEF25E0FFD2861207F6A28740
:0D06FD00E4334207C2861207F60EBE08E87D
:01070A0022CC
:10077600AC071207A27FD212075DAF0412075DAF66
:070786000512075D0207D810
:02068900AD07BB
:10068B001207A27FD212075DAF0512075D1207A2F8
:10069B007FD312075D1206EDD2001207B11207D8F5
:0106AB00222C
:1006AC00E4FD7F6B1207767D077F191207761D7F9D
:1006BC001A1207767D187F1B1207767D017F1C02AC
:0206CC000776AF
:02063A00AC070B
:10063C00120689AB07EC04FF120689AD07EBFE7CB2
:10064C0000E42DF52CEC3EF52B7B007A007916ADF1
:09065C002CFC12013EAE2BAF2C68
:010665002272
:1006CE007FF47E011200031206AC7F967E001200AC
:0F06DE00037F4712063A7F147E0012000380F25A
:10070B00E4FDFCC3ED9FEC9E5013E4FB0BBBC8FC5C
:0D071B00E4FB0BBB66FC0DBD00010C80E68D
:0107280022AE
:1004F3007C007D0AAF03AE02120261AA06AB077C41
:10050300007D0A120261AE04AF0512052A7C007D4C
:100513000AAF03AE02120261AA06AB077C007D0A92
:07052300120261AE04AF05F6
:10052A0074392FF58274073EF583E493FF7E00C287
:10053A0094E4FDFCEF30E704D2958002C295C2969E
:10054A0000D296EF25E0FFEE33FE0DBD00010CED63
:07055A0064084C70DFD2942D
:010561002277
:0405B900AB07AA06DC
:1005BD008A2B8B2CC3E52B648094805007C3E49B5E
:1005CD00FBE49AFA7C007D0AAF03AE0212052312FA
:1005DD0004F31204F37C007D0AAF03AE0212026134
:1005ED00AA06AB07C3E52B6480948050067F0A7E74
:1005FD00008003E4FFFE12052A7F647E00020003E3
:100562007FF47E011200031207CC1206AC7F3B120D
:10057200063A8E218F227F3D12063A8E238F247FE8
:100582003F12063A8E258F267F4712063A8E278F14
:1005920028AB26AA25AD24AC23AF22AE2112060D2C
:1005A200AF28AE271202ECAF28AE271205B97F643E
:0705B2007E0012000380B679
:10038600020562E493A3F8E493A34003F68001F226
:1003960008DFF48029E493A3F85407240CC8C33378
:1003A600C4540F4420C8834004F456800146F6DF47
:1003B600E4800B01020408102040809007FCE47ED4
:1003C600019360BCA3FF543F30E509541FFEE4933C
:1003D600A360010ECF54C025E060A840B8E493A303
:1003E600FAE493A3F8E493A3C8C582C8CAC583CA2E
:1003F600F0A3C8C582C8CAC583CADFE9DEE780BEE6
:0107FF0000F9
:10023D00BB010689828A83F0225002F722BBFE01A0
:02024D00F3229A
:10024F00EF8DF0A4A8F0CF8CF0A428CE8DF0A42EC3
:02025F00FE227D
:10026100C2D5EC30E709B2D5E4C39DFDE49CFCEEB8
:1002710030E715B2D5E4C39FFFE49EFE120297C397
:10028100E49DFDE49CFC800312029730D507C3E492
:060291009FFFE49EFE2227
:10029700BC000BBE0029EF8DF084FFADF022E4CC4B
:1002A700F875F008EF2FFFEE33FEEC33FCEE9DEC14
:1002B700984005FCEE9DFE0FD5F0E9E4CEFD22ED5A
:1002C700F8F5F0EE8420D21CFEADF075F008EF2FA4
:1002D700FFED33FD4007985006D5F0F222C398FD95
:0502E7000FD5F0EA2232
:00000001FF
