:030000000202B742
:0C02B700787FE4F6D8FD7581290202FE74
:1005510009080C040602030101030206040C080940
:0305BB0001210A11
:10053C00C28EE589540F4420F589758DFD758BFDB0
:05054C00C2ABD28E22BB
:0C058B00D29C759850D2AFD2AC02053C57
:0A05A3008F993099FDC299D2AC2265
:040003008E0E8F0FBF
:10000700751600751700751810C3E50E6480948087
:100017005015C3E4950FF50FE4950EF50EAB16AA30
:1000270017A918742D8008AB16AA17A918742012DF
:10003700021AAE0EAF0F7C277D1012022CEF243070
:10004700FFAB160518E51870020517F9AA17EF1286
:10005700021AAE0EAF0F7C277D1012022C8C0E8D6C
:100067000FAE0EAF0F7C037DE812022CEF2430FF9A
:10007700AB160518E51870020517F9AA17EF120253
:100087001AAE0EAF0F7C037DE812022C8C0E8D0F7B
:10009700AE0EAF0F7C007D6412022CEF2430FFAB55
:1000A700160518E51870020517F9AA17EF12021AB4
:1000B700AE0EAF0F7C007D6412022C8C0E8D0FAE3E
:1000C7000EAF0F7C007D0A12022CEF2430FFAB1617
:1000D7000518E51870020517F9AA17EF12021AAEEC
:1000E7000EAF0F7C007D0A12022C8C0E8D0FE50FD0
:1000F7002430FFAB160518E51870020517F9AA1783
:10010700EF12021AE4FE74102EF8E6FF1205A30E92
:03011700BE06F32E
:01011A0022C2
:0B042E003CF583E493F5A0AF1CAE1B6F
:10043900EF1FAA0670011E4A600DE4FDC3ED64803A
:07044900948A50EC0D80F5D0
:010450002289
:080343008C198D1A8A1B8B1C1A
:10034B00EF4E7034F51DF51EC3E51E951AE51964C5
:10035B0080F8E51D6480985054AE1DAF1E7C007D67
:10036B000812022C74512DF582740512042E051EF1
:10037B00E51E70D4051D80D0E4F51DF51EC3E51EEA
:10038B00951AE5196480F8E51D648098501FAE1D21
:10039B00AF1E7C007D0812022C74592DF58274055A
:0D03AB0012042E051EE51E70D4051D80D025
:0103B8002222
:10011B008B118A1289138C148D15C3E5146480948A
:10012B0080500FC3E49515F515E49514F514742D53
:10013B008008AB11AA12A913742012021AAE14AFC5
:10014B00157C277D1012022CEF2430FFAB11051309
:10015B00E51370020512F9AA12EF12021AAE14AFD0
:10016B00157C277D1012022C8C148D15AE14AF1537
:10017B007C037DE812022CEF2430FFAB110513E555
:10018B001370020512F9AA12EF12021AAE14AF1570
:10019B007C037DE812022C8C148D15AE14AF157CEC
:1001AB00007D6412022CEF2430FFAB110513E51315
:1001BB0070020512F9AA12EF12021AAE14AF157CD7
:1001CB00007D6412022C8C148D15AE14AF157C00BF
:1001DB007D0A12022CEF2430FFAB110513E51370CF
:1001EB00020512F9AA12EF12021AAE14AF157C0017
:1001FB007D0A12022C8C148D15E5152430FFAB11E2
:0F020B000513E51370020512F9AA12EF02021A89
:1004F300758921758DFD758BFD759850D2BCD28C95
:09050300D28ED2A9D2ACD2AF22F3
:0805AD008F993099FDC29922DB
:10049600E4FDFCC3ED9FEC9E5015E4FBFA0BBB009C
:0F04A600010AEB64794A70F50DBD00010C80E48A
:0104B5002224
:0605B5000000000000221E
:0F056100D281D2801205B5C2811205B5C28022A7
:0C059700C281D2801205B5D2810205B5E8
:0E057000A2009281D2801205B5C2800205B5AC
:0D057E00D2801205B5A281C2801205B522FF
:10050C00E4FEEF25E0FF9281D2801205B5C2801285
:09051C0005B50EBE08EC02057ED7
:1004D500E4FFD281FEEF25E0FFD2801205B5A281AF
:0D04E500E4334207C2801205B50EBE08E8E0
:0104F20022E7
:10052500AC071205617FD212050CAF0412050CAFA2
:070535000512050C020597F9
:02045100AD07F5
:100453001205617FD212050CAF0512050C1205615E
:100463007FD312050C1204D5D20012057012059722
:010473002266
:10047400E4FD7F6B1205257D077F191205251D7F7D
:100484001A1205257D187F1B1205257D017F1C028C
:0204940005253C
:02040200AC0745
:10040400120451AB07EC04FF120451AD07EBFE7C60
:1004140000E42DF510EC3EF50F7B007A007924AD55
:0904240010FC12011BAE0FAF1019
:01042D0022AC
:1004B6007FF47E011204961204747F967E00120465
:0F04C600967F471204027F147E0012049680F284
:1003B9007FF47E0112049612058B1204747F3B129E
:1003C90004028E088F097F3D1204028E0A8F0B7F6B
:1003D9003F1204028E0C8F0DAF09AE08120003AF55
:1003E9000BAE0A120003AF0DAE0C1200037F0D1203
:0903F90005A37F0A1205A380C4CC
:1002C3000203B9E493A3F8E493A34003F68001F295
:1002D30008DFF48029E493A3F85407240CC8C3333C
:1002E300C4540F4420C8834004F456800146F6DF0B
:1002F300E4800B01020408102040809005BBE47EDB
:10030300019360BCA3FF543F30E509541FFEE493FF
:10031300A360010ECF54C025E060A840B8E493A3C6
:10032300FAE493A3F8E493A3C8C582C8CAC583CAF1
:10033300F0A3C8C582C8CAC583CADFE9DEE780BEA9
:0105BE00003C
:10021A00BB010689828A83F0225002F722BBFE01C3
:02022A00F322BD
:10022C00C2D5EC30E709B2D5E4C39DFDE49CFCEEED
:10023C0030E715B2D5E4C39FFFE49EFE120262C301
:10024C00E49DFDE49CFC800312026230D507C3E4FC
:06025C009FFFE49EFE225C
:10026200BC000BBE0029EF8DF084FFADF022E4CC80
:10027200F875F008EF2FFFEE33FEEC33FCEE9DEC49
:10028200984005FCEE9DFE0FD5F0E9E4CEFD22ED8F
:10029200F8F5F0EE8420D21CFEADF075F008EF2FD9
:1002A200FFED33FD4007985006D5F0F222C398FDCA
:0502B2000FD5F0EA2267
:00000001FF
