:0300000002019F5B
:0C019F00787FE4F6D8FD7581200201E6AF
:1004560009080C040602030101030206040C08093C
:0304C00001080A26
:10044100C28EE589540F4420F589758DFD758BFDAC
:05045100C2ABD28E22B7
:0C049000D29C759850D2AFD2AC0204414F
:0A04A8008F993099FDC299D2AC2261
:0B0333003CF583E493F5A0AF16AE1577
:10033E00EF1FAA0670011E4A600DE4FDC3ED648036
:07034E00948A50EC0D80F5CC
:010355002285
:08022B008C138D148A158B164B
:10023300EF4E7034F517F518C3E5189514E51364FC
:1002430080F8E5176480985054AE17AF187C007D92
:100253000812011474562DF5827404120333051821
:10026300E51870D4051780D0E4F517F518C3E51821
:100273009514E5136480F8E517648098501FAE1752
:10028300AF187C007D08120114745E2DF58274048E
:0D0293001203330518E51870D4051780D04C
:0102A000223B
:100003008B158A1689178C188D19C3E5186480948B
:1000130080500FC3E49519F519E49518F518742D5C
:100023008008AB15AA16A9177420120102AE18AFE7
:10003300197C277D10120114EF2430FFAB1505172F
:10004300E51770020516F9AA16EF120102AE18AFF2
:10005300197C277D101201148C188D19AE18AF1955
:100063007C037DE8120114EF2430FFAB150517E57F
:100073001770020516F9AA16EF120102AE18AF198E
:100083007C037DE81201148C188D19AE18AF197C0E
:10009300007D64120114EF2430FFAB150517E5173B
:1000A30070020516F9AA16EF120102AE18AF197CF9
:1000B300007D641201148C188D19AE18AF197C00E1
:1000C3007D0A120114EF2430FFAB150517E51770F5
:1000D300020516F9AA16EF120102AE18AF197C0039
:1000E3007D0A1201148C188D19E5192430FFAB1504
:0F00F3000517E51770020516F9AA16EF020102AC
:1003F800758921758DFD758BFD759850D2BCD28C91
:09040800D28ED2A9D2ACD2AF22EF
:0804B2008F993099FDC29922D7
:10039B00E4FDFCC3ED9FEC9E5015E4FBFA0BBB0098
:0F03AB00010AEB64794A70F50DBD00010C80E486
:0103BA002220
:0604BA000000000000221A
:0F046600D2B1D2B01204BAC2B11204BAC2B022DB
:0C049C00C2B1D2B01204BAD2B10204BA4C
:0E047500A20092B1D2B01204BAC2B00204BA10
:0D048300D2B01204BAA2B1C2B01204BA2263
:10041100E4FEEF25E0FF92B1D2B01204BAC2B012ED
:0904210004BA0EBE08EC020483CB
:1003DA00E4FFD2B1FEEF25E0FFD2B01204BAA2B117
:0D03EA00E4334207C2B01204BA0EBE08E8A8
:0103F70022E3
:10042A00AC071204667FD0120411AF04120411AF94
:07043A000512041102049CED
:02035600AD07F1
:100358001204667FD0120411AF051204111204664C
:100368007FD11204111203DAD20012047512049C10
:010378002262
:10037900E4FD7F6B12042A7D077F1912042A1D7F71
:100389001A12042A7D187F1B12042A7D017F1C0280
:02039900042A34
:0202F800AC0751
:1002FA00120356AB07EC04FF120356AD07EBFE7C64
:10030A0000E42DF514EC3EF5137B007A00790BAD71
:10031A0014FC120003E4FE740B2EF8E6FF1204A884
:08032A000EBE06F3AE13AF1482
:0103320022A8
:1003BB007FF47E0112039B1203797F967E0012035A
:0F03CB009B7F471202F87F147E0012039B80F283
:1002A1007FF47E0112039B1204901203797F47129F
:1002B10002F88E118F127C007D0A1201148E118FAB
:1002C10012D3E5129400E51164809480400D7B0AFD
:1002D1007A00AD12AC11E4FFFE8011C3E49512FD6A
:1002E100E49511FC7B0A7A007F017E0012022BE467
:0702F100FFFE12039B80B623
:1001AB000202A1E493A3F8E493A34003F68001F2C7
:1001BB0008DFF48029E493A3F85407240CC8C33355
:1001CB00C4540F4420C8834004F456800146F6DF24
:1001DB00E4800B01020408102040809004C0E47EF0
:1001EB00019360BCA3FF543F30E509541FFEE49319
:1001FB00A360010ECF54C025E060A840B8E493A3E0
:10020B00FAE493A3F8E493A3C8C582C8CAC583CA0A
:10021B00F0A3C8C582C8CAC583CADFE9DEE780BEC2
:0104C3000038
:10010200BB010689828A83F0225002F722BBFE01DC
:02011200F322D6
:10011400C2D5EC30E709B2D5E4C39DFDE49CFCEE06
:1001240030E715B2D5E4C39FFFE49EFE12014AC333
:10013400E49DFDE49CFC800312014A30D507C3E42E
:060144009FFFE49EFE2275
:10014A00BC000BBE0029EF8DF084FFADF022E4CC99
:10015A00F875F008EF2FFFEE33FEEC33FCEE9DEC62
:10016A00984005FCEE9DFE0FD5F0E9E4CEFD22EDA8
:10017A00F8F5F0EE8420D21CFEADF075F008EF2FF2
:10018A00FFED33FD4007985006D5F0F222C398FDE3
:05019A000FD5F0EA2280
:00000001FF
