:030000000202B742
:0C02B700787FE4F6D8FD7581310202FE6C
:1005750009080C040602030101030206040C08091C
:0305DF0001160AF8
:10056000C28EE589540F4420F589758DFD758BFD8C
:05057000C2ABD28E2297
:0C05AF00D29C759850D2AFD2AC0205600F
:0A05C7008F993099FDC299D2AC2241
:040003008E218F2299
:10000700752900752A00752B23C3E5216480948028
:100017005015C3E49522F522E49521F521AB29AAD1
:100027002AA92B742D8008AB29AA2AA92B74201280
:10003700021AAE21AF227C277D1012022CEF24304A
:10004700FFAB29052BE52B7002052AF9AA2AEF1227
:10005700021AAE21AF227C277D1012022C8C218D33
:1000670022AE21AF227C037DE812022CEF2430FF61
:10007700AB29052BE52B7002052AF9AA2AEF1202F4
:100087001AAE21AF227C037DE812022C8C218D222F
:10009700AE21AF227C007D6412022CEF2430FFAB2F
:1000A70029052BE52B7002052AF9AA2AEF12021A55
:1000B700AE21AF227C007D6412022C8C218D22AEF2
:1000C70021AF227C007D0A12022CEF2430FFAB29DE
:1000D700052BE52B7002052AF9AA2AEF12021AAEA0
:1000E70021AF227C007D0A12022C8C218D22E52271
:1000F7002430FFAB29052BE52B7002052AF9AA2A24
:10010700EF12021AE4FE74232EF8E6FF1205C70E5B
:03011700BE06F32E
:01011A0022C2
:0403F9008F828E83DE
:1003FD007F231205C7E583FF1205C7AF821205C71C
:10040D00ECFF1205C7AF051205C7EAFF1205C7AF0E
:09041D00031205C77F240205C784
:0B0452003CF583E493F5A0AF2FAE2E25
:10045D00EF1FAA0670011E4A600DE4FDC3ED648016
:07046D00948A50EC0D80F5AC
:010474002265
:080343008C2C8D2D8A2E8B2FCE
:10034B00EF4E7034F530F531C3E531952DE52C6466
:10035B0080F8E5306480985054AE30AF317C007D2E
:10036B000812022C74752DF5827405120452053196
:10037B00E53170D4053080D0E4F530F531C3E5318B
:10038B00952DE52C6480F8E530648098501FAE30D5
:10039B00AF317C007D0812022C747D2DF582740523
:0D03AB001204520531E53170D4053080D0C8
:0103B8002222
:10011B008B118A1289138C148D15C3E5146480948A
:10012B0080500FC3E49515F515E49514F514742D53
:10013B008008AB11AA12A913742012021AAE14AFC5
:10014B00157C277D1012022CEF2430FFAB11051309
:10015B00E51370020512F9AA12EF12021AAE14AFD0
:10016B00157C277D1012022C8C148D15AE14AF1537
:10017B007C037DE812022CEF2430FFAB110513E555
:10018B001370020512F9AA12EF12021AAE14AF1570
:10019B007C037DE812022C8C148D15AE14AF157CEC
:1001AB00007D6412022CEF2430FFAB110513E51315
:1001BB0070020512F9AA12EF12021AAE14AF157CD7
:1001CB00007D6412022C8C148D15AE14AF157C00BF
:1001DB007D0A12022CEF2430FFAB110513E51370CF
:1001EB00020512F9AA12EF12021AAE14AF157C0017
:1001FB007D0A12022C8C148D15E5152430FFAB11E2
:0F020B000513E51370020512F9AA12EF02021A89
:10051700758921758DFD758BFD759850D2BCD28C70
:09052700D28ED2A9D2ACD2AF22CF
:0805D1008F993099FDC29922B7
:1004BA00E4FDFCC3ED9FEC9E5015E4FBFA0BBB0078
:0F04CA00010AEB64794A70F50DBD00010C80E466
:0104D9002200
:0605D900000000000022FA
:0F058500D281D2801205D9C2811205D9C280223B
:0C05BB00C281D2801205D9D2810205D97C
:0E059400A2009281D2801205D9C2800205D940
:0D05A200D2801205D9A281C2801205D92293
:10053000E4FEEF25E0FF9281D2801205D9C280123D
:0905400005D90EBE08EC0205A26B
:1004F900E4FFD281FEEF25E0FFD2801205D9A28167
:0D050900E4334207C2801205D90EBE08E897
:0105160022C2
:10054900AC071205857FD2120530AF04120530AF12
:07055900051205300205BB8D
:02047500AD07D1
:100477001205857FD2120530AF05120530120585AA
:100487007FD31205301204F9D2001205941205BB6E
:010497002242
:10049800E4FD7F6B1205497D077F191205491D7F11
:1004A8001A1205497D187F1B1205497D017F1C0220
:0204B8000549F4
:02042600AC0721
:10042800120475AB07EC04FF120475AD07EBFE7CF4
:1004380000E42DF510EC3EF50F7B007A007919AD3C
:0904480010FC12011BAE0FAF10F5
:010451002288
:1004DA007FF47E011204BA1204987F967E001204F9
:0F04EA00BA7F471204267F147E001204BA80F2F4
:1003B9007FF47E011204BA1205AF1204987F3B1232
:1003C90004268E088F097F3D1204268E0A8F0B7F23
:1003D9003F1204268E0C8F0DAB0DAA0CAD0BAC0A87
:1003E900AF09AE081203F97FC87E001204BA80CDA6
:1002C3000203B9E493A3F8E493A34003F68001F295
:1002D30008DFF48029E493A3F85407240CC8C3333C
:1002E300C4540F4420C8834004F456800146F6DF0B
:1002F300E4800B01020408102040809005DFE47EB7
:10030300019360BCA3FF543F30E509541FFEE493FF
:10031300A360010ECF54C025E060A840B8E493A3C6
:10032300FAE493A3F8E493A3C8C582C8CAC583CAF1
:10033300F0A3C8C582C8CAC583CADFE9DEE780BEA9
:0105E2000018
:10021A00BB010689828A83F0225002F722BBFE01C3
:02022A00F322BD
:10022C00C2D5EC30E709B2D5E4C39DFDE49CFCEEED
:10023C0030E715B2D5E4C39FFFE49EFE120262C301
:10024C00E49DFDE49CFC800312026230D507C3E4FC
:06025C009FFFE49EFE225C
:10026200BC000BBE0029EF8DF084FFADF022E4CC80
:10027200F875F008EF2FFFEE33FEEC33FCEE9DEC49
:10028200984005FCEE9DFE0FD5F0E9E4CEFD22ED8F
:10029200F8F5F0EE8420D21CFEADF075F008EF2FD9
:1002A200FFED33FD4007985006D5F0F222C398FDCA
:0502B2000FD5F0EA2267
:00000001FF
