:03000000020357A1
:0C035700787FE4F6D8FD75813402039E27
:1006A50009080C040602030101030206040C0809EB
:0B06B5003F065B4F666D7D077F6F40C6
:03078800012C0140
:10070900C28EE589540F4420F589758DFD758BFDE1
:05071900C2ABD28E22EC
:0C075800D29C759850D2AFD2AC020709B9
:0A0770008F993099FDC299D2AC2296
:040003008E218F2299
:10000700752900752A00752B23C3E5216480948028
:100017005015C3E49522F522E49521F521AB29AAD1
:100027002AA92B742D8008AB29AA2AA92B74201280
:10003700021AAE21AF227C277D1012023EEF243038
:10004700FFAB29052BE52B7002052AF9AA2AEF1227
:10005700021AAE21AF227C277D1012023E8C218D21
:1000670022AE21AF227C037DE812023EEF2430FF4F
:10007700AB29052BE52B7002052AF9AA2AEF1202F4
:100087001AAE21AF227C037DE812023E8C218D221D
:10009700AE21AF227C007D6412023EEF2430FFAB1D
:1000A70029052BE52B7002052AF9AA2AEF12021A55
:1000B700AE21AF227C007D6412023E8C218D22AEE0
:1000C70021AF227C007D0A12023EEF2430FFAB29CC
:1000D700052BE52B7002052AF9AA2AEF12021AAEA0
:1000E70021AF227C007D0A12023E8C218D22E5225F
:1000F7002430FFAB29052BE52B7002052AF9AA2A24
:10010700EF12021AE4FE74232EF8E6FF1207700EB0
:03011700BE06F32E
:01011A0022C2
:04055E008E128F1357
:100562007F23120770E512FF120770AF1312077094
:10057200ECFF120770AF05120770EAFF120770AFA7
:09058200031207707F24020770C8
:0B05E0003CF583E493F5A0AF17AE16C6
:1005EB00EF1FAA0670011E4A600DE4FDC3ED648087
:0705FB00948A50EC0D80F51D
:0106020022D5
:0803E3008C148D158A168B178E
:1003EB00EF4E7034F518F519C3E5199515E514643E
:1003FB0080F8E5186480985054AE18AF197C007DD6
:10040B000812023E74A52DF58274061205E005193B
:10041B00E51970D4051880D0E4F518F519C3E51962
:10042B009515E5146480F8E518648098501FAE1894
:10043B00AF197C007D0812023E74AD2DF582740657
:0D044B001205E00519E51970D4051880D0E0
:010458002281
:0402C9008E128F13EF
:1002CD00E4FAFC7D0A12023E8E128F137C007D0A29
:1002DD0012022C8E128F137B047D0412023E8E129D
:1002ED008F137C007D027F047E0012023ED3E51346
:1002FD009FEE6480F8E512648098400AE5139BF543
:10030D0013E5129AF512D3E5139400E51264809467
:10031D0080400D7B0A7A00AD13AC12E4FFFE8026FF
:10032D00AE12AF137C007D0512023EEF2513F513BF
:10033D00EE3512F512C3E49513FDE49512FC7B0A1C
:09034D007A007F017E001203E337
:010356002284
:10011B008B148A1589168C178D18C3E51764809478
:10012B0080500FC3E49518F518E49517F517742D47
:10013B008008AB14AA15A916742012021AAE17AFB9
:10014B00187C277D1012023EEF2430FFAB140516EE
:10015B00E51670020515F9AA15EF12021AAE17AFC4
:10016B00187C277D1012023E8C178D18AE17AF1816
:10017B007C037DE812023EEF2430FFAB140516E53D
:10018B001670020515F9AA15EF12021AAE17AF1861
:10019B007C037DE812023E8C178D18AE17AF187CCE
:1001AB00007D6412023EEF2430FFAB140516E516FA
:1001BB0070020515F9AA15EF12021AAE17AF187CCB
:1001CB00007D6412023E8C178D18AE17AF187C00A1
:1001DB007D0A12023EEF2430FFAB140516E51670B4
:1001EB00020515F9AA15EF12021AAE17AF187C000B
:1001FB007D0A12023E8C178D18E5182430FFAB14C4
:0F020B000516E51670020515F9AA15EF02021A7D
:1006C000758921758DFD758BFD759850D2BCD28CC6
:0906D000D28ED2A9D2ACD2AF2225
:08077A008F993099FDC299220C
:10064800E4FDFCC3ED9FEC9E5015E4FBFA0BBB00E8
:0F065800010AEB64794A70F50DBD00010C80E4D6
:010667002270
:060782000000000000224F
:0F072E00D281D280120782C281120782C280223A
:0C076400C281D280120782D2810207827B
:0E073D00A2009281D280120782C2800207823F
:0D074B00D280120782A281C2801207822292
:1006D900E4FEEF25E0FF9281D280120782C28012E8
:0906E90007820EBE08EC02074B6B
:10068700E4FFD281FEEF25E0FFD280120782A2812C
:0D069700E4334207C2801207820EBE08E85D
:0106A4002233
:1006F200AC0712072E7FD21206D9AF041206D9AF69
:07070200051206D90207648D
:02060300AD0741
:1006050012072E7FD21206D9AF051206D912072E70
:100615007FD31206D9120687D20012073D1207644E
:0106250022B2
:10062600E4FD7F6B1206F27D077F191206F21D7F2D
:100636001A1206F27D187F1B1206F27D017F1C023C
:0206460006F2BA
:02058B00AC07BB
:10058D00120603AB07EC04FF120603AD07EBFE7C6E
:10059D0000E42DF513EC3EF5127B007A00792FADBA
:0905AD0013FC12011BAE12AF1386
:0105B6002222
:100668007FF47E011206481206267F967E00120647
:0F067800487F4712058B7F147E0012064880F2E0
:10045900AE12AF137C007D0A12023EAE04AF051244
:100469000526AE12AF137C007D0A12023E8E128F52
:10047900137F017E001204A6AE12AF137C007D0A21
:1004890012023EAE04AF05120526AE12AF137C0070
:0D0499007D0A12023E8E128F137F017E003D
:1004A600E4FDFCC3ED9FEC9E5013E4FB0BBBC8FCC4
:0D04B600E4FB0BBB66FC0DBD00010C80E6F5
:0104C3002216
:0B051B007F087E001205267F087E008E
:1005260074B52FF58274063EF583E493FF7E00C210
:1005360094E4FDFCEF30E704D2958002C295C296A2
:1005460000D296EF25E0FFEE33FE0DBD00010CED67
:0705560064084C70DFD29431
:01055D00227B
:10071E0012051B12051B1205227F087E00020526FC
:0405B7008E128F13FE
:1005BB00851214851315C29712048512045912045F
:1005CB0059C3E5146480948050047F0A8003E4FFD0
:0405DB00FE120526E1
:0105DF0022F9
:1004C4007FF47E011206481207581206267F3B125B
:1004D400058B8E088F097F3D12058B8E0A8F0B7F4B
:1004E4003F12058B8E0C8F0D7F4712058B8E0E8F5E
:1004F4000FAB0DAA0CAD0BAC0AAF09AE0812055E2A
:10050400AF0FAE0E1205B7AF0FAE0E1202C97F6465
:070514007E0012064880B6CC
:100363000204C4E493A3F8E493A34003F68001F2E8
:1003730008DFF48029E493A3F85407240CC8C3339B
:10038300C4540F4420C8834004F456800146F6DF6A
:10039300E4800B0102040810204080900788E47E6B
:1003A300019360BCA3FF543F30E509541FFEE4935F
:1003B300A360010ECF54C025E060A840B8E493A326
:1003C300FAE493A3F8E493A3C8C582C8CAC583CA51
:1003D300F0A3C8C582C8CAC583CADFE9DEE780BE09
:01078B00006D
:10021A00BB010689828A83F0225002F722BBFE01C3
:02022A00F322BD
:10022C00EF8DF0A4A8F0CF8CF0A428CE8DF0A42EE6
:02023C00FE22A0
:10023E00C2D5EC30E709B2D5E4C39DFDE49CFCEEDB
:10024E0030E715B2D5E4C39FFFE49EFE120274C3DD
:10025E00E49DFDE49CFC800312027430D507C3E4D8
:06026E009FFFE49EFE224A
:10027400BC000BBE0029EF8DF084FFADF022E4CC6E
:10028400F875F008EF2FFFEE33FEEC33FCEE9DEC37
:10029400984005FCEE9DFE0FD5F0E9E4CEFD22ED7D
:1002A400F8F5F0EE8420D21CFEADF075F008EF2FC7
:1002B400FFED33FD4007985006D5F0F222C398FDB8
:0502C4000FD5F0EA2255
:00000001FF
