:030000000202B742
:0C02B700787FE4F6D8FD75812F0202FE6E
:1005710009080C040602030101030206040C080920
:0305DB0001210AF1
:10055C00C28EE589540F4420F589758DFD758BFD90
:05056C00C2ABD28E229B
:0C05AB00D29C759850D2AFD2AC02055C17
:0A05C3008F993099FDC299D2AC2245
:040003008E088F09CB
:1000070075100075110075120AC3E50864809480A5
:100017005015C3E49509F509E49508F508AB10AA4E
:1000270011A912742D8008AB10AA11A912742012FD
:10003700021AAE08AF097C277D1012022CEF24307C
:10004700FFAB100512E51270020511F9AA11EF12A4
:10005700021AAE08AF097C277D1012022C8C088D7E
:1000670009AE08AF097C037DE812022CEF2430FFAC
:10007700AB100512E51270020511F9AA11EF120271
:100087001AAE08AF097C037DE812022C8C088D0993
:10009700AE08AF097C007D6412022CEF2430FFAB61
:1000A700100512E51270020511F9AA11EF12021AD2
:1000B700AE08AF097C007D6412022C8C088D09AE56
:1000C70008AF097C007D0A12022CEF2430FFAB1029
:1000D7000512E51270020511F9AA11EF12021AAE04
:1000E70008AF097C007D0A12022C8C088D09E509EE
:1000F7002430FFAB100512E51270020511F9AA11A1
:10010700EF12021AE4FE740A2EF8E6FF1205C30E78
:03011700BE06F32E
:01011A0022C2
:0403F5008E178F18B8
:1003F9007F231205C3E517FF1205C3AF181205C302
:10040900ECFF1205C3AF051205C3EAFF1205C3AF1E
:09041900031205C37F240205C390
:0B044E003CF583E493F5A0AF2DAE2C2D
:10045900EF1FAA0670011E4A600DE4FDC3ED64801A
:07046900948A50EC0D80F5B0
:010470002269
:080343008C2A8D2B8A2C8B2DD6
:10034B00EF4E7034F52EF52FC3E52F952BE52A6470
:10035B0080F8E52E6480985054AE2EAF2F7C007D34
:10036B000812022C74712DF582740512044E052FA0
:10037B00E52F70D4052E80D0E4F52EF52FC3E52F95
:10038B00952BE52A6480F8E52E648098501FAE2EDD
:10039B00AF2F7C007D0812022C74792DF582740529
:0D03AB0012044E052FE52F70D4052E80D0D2
:0103B8002222
:10011B008B198A1A891B8C1C8D1DC3E51C6480945A
:10012B0080500FC3E4951DF51DE4951CF51C742D33
:10013B008008AB19AA1AA91B742012021AAE1CAFA5
:10014B001D7C277D1012022CEF2430FFAB19051BF1
:10015B00E51B7002051AF9AA1AEF12021AAE1CAFB0
:10016B001D7C277D1012022C8C1C8D1DAE1CAF1D0F
:10017B007C037DE812022CEF2430FFAB19051BE545
:10018B001B7002051AF9AA1AEF12021AAE1CAF1D48
:10019B007C037DE812022C8C1C8D1DAE1CAF1D7CCC
:1001AB00007D6412022CEF2430FFAB19051BE51BFD
:1001BB007002051AF9AA1AEF12021AAE1CAF1D7CB7
:1001CB00007D6412022C8C1C8D1DAE1CAF1D7C009F
:1001DB007D0A12022CEF2430FFAB19051BE51B70B7
:1001EB0002051AF9AA1AEF12021AAE1CAF1D7C00F7
:1001FB007D0A12022C8C1C8D1DE51D2430FFAB19C2
:0F020B00051BE51B7002051AF9AA1AEF02021A69
:10051300758921758DFD758BFD759850D2BCD28C74
:09052300D28ED2A9D2ACD2AF22D3
:0805CD008F993099FDC29922BB
:1004B600E4FDFCC3ED9FEC9E5015E4FBFA0BBB007C
:0F04C600010AEB64794A70F50DBD00010C80E46A
:0104D5002204
:0605D500000000000022FE
:0F058100D281D2801205D5C2811205D5C2802247
:0C05B700C281D2801205D5D2810205D588
:0E059000A2009281D2801205D5C2800205D54C
:0D059E00D2801205D5A281C2801205D5229F
:10052C00E4FEEF25E0FF9281D2801205D5C2801245
:09053C0005D50EBE08EC02059E77
:1004F500E4FFD281FEEF25E0FFD2801205D5A2816F
:0D050500E4334207C2801205D50EBE08E89F
:0105120022C6
:10054500AC071205817FD212052CAF0412052CAF22
:070555000512052C0205B799
:02047100AD07D5
:100473001205817FD212052CAF0512052C120581BE
:100483007FD312052C1204F5D2001205901205B782
:010493002246
:10049400E4FD7F6B1205457D077F191205451D7F1D
:1004A4001A1205457D187F1B1205457D017F1C022C
:0204B4000545FC
:02042200AC0725
:10042400120471AB07EC04FF120471AD07EBFE7C00
:1004340000E42DF518EC3EF5177B007A007924AD25
:0904440018FC12011BAE17AF18E1
:01044D00228C
:1004D6007FF47E011204B61204947F967E00120405
:0F04E600B67F471204227F147E001204B680F204
:1003B9007FF47E011204B61205AB1204947F3B123E
:1003C90004228E138F147F3D1204228E158F167FFF
:1003D9003F120422AB07AA06AD16AC15AF14AE1333
:0C03E9001203F57F647E001204B680D180
:1002C3000203B9E493A3F8E493A34003F68001F295
:1002D30008DFF48029E493A3F85407240CC8C3333C
:1002E300C4540F4420C8834004F456800146F6DF0B
:1002F300E4800B01020408102040809005DBE47EBB
:10030300019360BCA3FF543F30E509541FFEE493FF
:10031300A360010ECF54C025E060A840B8E493A3C6
:10032300FAE493A3F8E493A3C8C582C8CAC583CAF1
:10033300F0A3C8C582C8CAC583CADFE9DEE780BEA9
:0105DE00001C
:10021A00BB010689828A83F0225002F722BBFE01C3
:02022A00F322BD
:10022C00C2D5EC30E709B2D5E4C39DFDE49CFCEEED
:10023C0030E715B2D5E4C39FFFE49EFE120262C301
:10024C00E49DFDE49CFC800312026230D507C3E4FC
:06025C009FFFE49EFE225C
:10026200BC000BBE0029EF8DF084FFADF022E4CC80
:10027200F875F008EF2FFFEE33FEEC33FCEE9DEC49
:10028200984005FCEE9DFE0FD5F0E9E4CEFD22ED8F
:10029200F8F5F0EE8420D21CFEADF075F008EF2FD9
:1002A200FFED33FD4007985006D5F0F222C398FDCA
:0502B2000FD5F0EA2267
:00000001FF
