:0300000002037A7E
:0C037A00787FE4F6D8FD7581370203C1DE
:10071D0009080C040602030101030206040C080972
:0B072D003F065B4F666D7D077F6F404D
:0307F000012101E3
:0B065A003CF583E493F5A0AF1DAE1C3F
:10066500EF1FAA0670011E4A600DE4FDC3ED64800C
:07067500948A50EC0D80F5A2
:01067C00225B
:080406008C1A8D1B8A1C8B1D52
:10040E00EF4E7034F51EF51FC3E51F951BE51A64FC
:10041E0080F8E51E6480985054AE1EAF1F7C007DA0
:10042E0008120261741D2DF582740712065A051FFB
:10043E00E51F70D4051E80D0E4F51EF51FC3E51F21
:10044E00951BE51A6480F8E51E648098501FAE1E59
:10045E00AF1F7C007D0812026174252DF582740792
:0D046E0012065A051FE51F70D4051E80D030
:01047B00225E
:0402EC008E128F13CC
:1002F000E4FAFC7D0A1202618E128F137C007D0AE3
:1003000012024F8E128F137B047D041202618E1233
:100310008F137C007D027F047E00120261D3E513FF
:100320009FEE6480F8E512648098400AE5139BF51F
:1003300013E5129AF512D3E5139400E51264809444
:1003400080400D7B0A7A00AD13AC12E4FFFE8026DC
:10035000AE12AF137C007D05120261EF2513F51379
:10036000EE3512F512C3E49513FDE49512FC7B0AF9
:090370007A007F017E00120406F0
:010379002261
:10078100C28EE589540F4420F589758DFD758BFD69
:05079100C2ABD28E2274
:0C07C000D29C759850D2AFD2AC020781D9
:030023000204EBE9
:1004EB00C0E0C0F0C083C082C0D075D000C000C0D7
:1004FB0002C003C004C005C006C0073098348599FC
:10050B0022E522B46106752504752600E522B46246
:10051B0006752508752600E522B4630675250C754E
:10052B0026187B0A7A00AD26AC25E4FFFE120406E2
:10053B00C298D007D006D005D004D003D002D0008B
:0B054B00D0D0D082D083D0F0D0E032BE
:0A07D8008F993099FDC299D2AC222E
:040026008E2D8F2E5E
:10002A0075350075360075372FC3E52D64809480C9
:10003A005015C3E4952EF52EE4952DF52DAB35AA72
:10004A0036A937742D8008AB35AA36A93774201221
:10005A00023DAE2DAF2E7C277D10120261EF2430B7
:10006A00FFAB350537E53770020536F9AA36EF12C8
:10007A00023DAE2DAF2E7C277D101202618C2D8D94
:10008A002EAE2DAF2E7C037DE8120261EF2430FFE5
:10009A00AB350537E53770020536F9AA36EF120295
:1000AA003DAE2DAF2E7C037DE81202618C2D8D2E84
:1000BA00AE2DAF2E7C007D64120261EF2430FFABBF
:1000CA00350537E53770020536F9AA36EF12023DD3
:1000DA00AE2DAF2E7C007D641202618C2D8D2EAE6A
:1000EA002DAF2E7C007D0A120261EF2430FFAB3562
:1000FA000537E53770020536F9AA36EF12023DAE2A
:10010A002DAF2E7C007D0A1202618C2D8D2EE52EDC
:10011A002430FFAB350537E53770020536F9AA36C4
:10012A00EF12023DE4FE742F2EF8E6FF1207D80EF6
:03013A00BE06F30B
:01013D00229F
:040601008E128F13B3
:100605007F231207D8E512FF1207D8AF131207D8B8
:10061500ECFF1207D8AF051207D8EAFF1207D8AFCB
:09062500031207D87F240207D854
:10013E008B148A1589168C178D18C3E51764809455
:10014E0080500FC3E49518F518E49517F517742D24
:10015E008008AB14AA15A916742012023DAE17AF73
:10016E00187C277D10120261EF2430FFAB140516A8
:10017E00E51670020515F9AA15EF12023DAE17AF7E
:10018E00187C277D101202618C178D18AE17AF18D0
:10019E007C037DE8120261EF2430FFAB140516E5F7
:1001AE001670020515F9AA15EF12023DAE17AF181B
:1001BE007C037DE81202618C178D18AE17AF187C88
:1001CE00007D64120261EF2430FFAB140516E516B4
:1001DE0070020515F9AA15EF12023DAE17AF187C85
:1001EE00007D641202618C178D18AE17AF187C005B
:1001FE007D0A120261EF2430FFAB140516E516706E
:10020E00020515F9AA15EF12023DAE17AF187C00C4
:10021E007D0A1202618C178D18E5182430FFAB147D
:0F022E000516E51670020515F9AA15EF02023D37
:10073800758921758DFD758BFD759850D2BCD28C4D
:09074800D28ED2A9D2ACD2AF22AC
:0807E2008F993099FDC29922A4
:10000300E4FDFCC3ED9FEC9E5015E4FBFA0BBB0033
:0F001300010AEB64794A70F50DBD00010C80E421
:0100220022BB
:0607EA00000000000022E7
:0F079600D287D2861207EAC2871207EAC28622EA
:0C07CC00C287D2861207EAD2870207EA31
:0E07A500A2009287D2861207EAC2860207EAF5
:0D07B300D2861207EAA287C2861207EA2248
:10075100E4FEEF25E0FF9287D2861207EAC28612F5
:0907610007EA0EBE08EC0207B322
:1006E100E4FFD287FEEF25E0FFD2861207EAA28758
:0D06F100E4334207C2861207EA0EBE08E895
:0106FE0022D9
:10076A00AC071207967FD2120751AF04120751AF96
:07077A00051207510207CC34
:02067D00AD07C7
:10067F001207967FD2120751AF0512075112079634
:10068F007FD31207511206E1D2001207A51207CC31
:01069F002238
:1006A000E4FD7F6B12076A7D077F1912076A1D7FC1
:1006B0001A12076A7D187F1B12076A7D017F1C02D0
:0206C000076AC7
:02062E00AC0717
:1006300012067DAB07EC04FF12067DAD07EBFE7CD6
:1006400000E42DF513EC3EF5127B007A007927AD1E
:0906500013FC12013EAE12AF13BF
:01065900227E
:1006C2007FF47E011200031206A07F967E001200C4
:0F06D200037F4712062E7F147E0012000380F272
:1006FF00E4FDFCC3ED9FEC9E5013E4FB0BBBC8FC69
:0D070F00E4FB0BBB66FC0DBD00010C80E699
:01071C0022BA
:10047C007C007D0AAF03AE02120261AA06AB077CB8
:10048C00007D0A120261AE04AF051204B37C007D3C
:10049C000AAF03AE02120261AA06AB077C007D0A0A
:0704AC00120261AE04AF056E
:1004B300742D2FF58274073EF583E493FF7E00C20B
:1004C30094E4FDFCEF30E704D2958002C295C29616
:1004D30000D296EF25E0FFEE33FE0DBD00010CEDDB
:0704E30064084C70DFD294A5
:0104EA0022EF
:0405AD00AB07AA06E8
:1005B1008A128B13C3E512648094805007C3E49BB5
:1005C100FBE49AFA7C007D0AAF03AE021204AC127E
:1005D100047C12047C7C007D0AAF03AE021202612E
:1005E100AA06AB07C3E5126480948050067F0A7E99
:1005F100008003E4FFFE1204B37F647E0002000367
:100556007FF47E011200031207C01206A07F3B1231
:10056600062E8E088F097F3D12062E8E0A8F0B7F70
:100576003F12062E8E0C8F0D7F4712062E8E0E8F83
:100586000FAB0DAA0CAD0BAC0AAF09AE08120601F3
:10059600AF0FAE0E1205ADAF0FAE0E1202EC7F0A14
:0705A6007E0012000380B685
:10038600020556E493A3F8E493A34003F68001F232
:1003960008DFF48029E493A3F85407240CC8C33378
:1003A600C4540F4420C8834004F456800146F6DF47
:1003B600E4800B01020408102040809007F0E47EE0
:1003C600019360BCA3FF543F30E509541FFEE4933C
:1003D600A360010ECF54C025E060A840B8E493A303
:1003E600FAE493A3F8E493A3C8C582C8CAC583CA2E
:1003F600F0A3C8C582C8CAC583CADFE9DEE780BEE6
:0107F3000005
:10023D00BB010689828A83F0225002F722BBFE01A0
:02024D00F3229A
:10024F00EF8DF0A4A8F0CF8CF0A428CE8DF0A42EC3
:02025F00FE227D
:10026100C2D5EC30E709B2D5E4C39DFDE49CFCEEB8
:1002710030E715B2D5E4C39FFFE49EFE120297C397
:10028100E49DFDE49CFC800312029730D507C3E492
:060291009FFFE49EFE2227
:10029700BC000BBE0029EF8DF084FFADF022E4CC4B
:1002A700F875F008EF2FFFEE33FEEC33FCEE9DEC14
:1002B700984005FCEE9DFE0FD5F0E9E4CEFD22ED5A
:1002C700F8F5F0EE8420D21CFEADF075F008EF2FA4
:1002D700FFED33FD4007985006D5F0F222C398FD95
:0502E7000FD5F0EA2232
:00000001FF
