:0300000002019F5B
:0C019F00787FE4F6D8FD7581200201E6AF
:1003B20009080C040602030101030206040C0809E1
:03041C0001080ACA
:10039D00C28EE589540F4420F589758DFD758BFD51
:0503AD00C2ABD28E225C
:0C03EC00D29C759850D2AFD2AC02039D99
:0A0404008F993099FDC299D2AC2205
:10035800EF1FAA0670011E4A600DE4FDC3ED64801C
:07036800948A50EC0D80F5B2
:01036F00226B
:10038700E4FCEC9003BA93F5A0AF087E0012035883
:060397000CBC08EE80EA38
:100003008B118A1289138C148D15C3E514648094A3
:1000130080500FC3E49515F515E49514F514742D6C
:100023008008AB11AA12A9137420120102AE14AFF7
:10003300157C277D10120114EF2430FFAB1105133B
:10004300E51370020512F9AA12EF120102AE14AF02
:10005300157C277D101201148C148D15AE14AF1569
:100063007C037DE8120114EF2430FFAB110513E587
:100073001370020512F9AA12EF120102AE14AF15A2
:100083007C037DE81201148C148D15AE14AF157C1E
:10009300007D64120114EF2430FFAB110513E51347
:1000A30070020512F9AA12EF120102AE14AF157C09
:1000B300007D641201148C148D15AE14AF157C00F1
:1000C3007D0A120114EF2430FFAB110513E5137001
:1000D300020512F9AA12EF120102AE14AF157C0049
:1000E3007D0A1201148C148D15E5152430FFAB1114
:0F00F3000513E51370020512F9AA12EF020102BC
:10030D00758921758DFD758BFD759850D2BCD28C7C
:09031D00D28ED2A9D2ACD2AF22DB
:08040E008F993099FDC299227B
:1002CF00E4FDFCC3ED9FEC9E5015E4FBFA0BBB0065
:0F02DF00010AEB64794A70F50DBD00010C80E453
:0102EE0022ED
:1003260000000000000000000000000000000000C7
:090336000000000000000000229C
:0F03C200D2B1D2B0120326C2B1120326C2B022AA
:0C03F800C2B1D2B0120326D2B10203261B
:0E03D100A20092B1D2B0120326C2B0020326DF
:0D03DF00D2B0120326A2B1C2B01203262232
:10033F00E4FEEF25E0FF92B1D2B0120326C2B01255
:09034F0003260EBE08EC0203DFD8
:1002EF00E4FFD2B1FEEF25E0FFD2B0120326A2B198
:0D02FF00E4334207C2B01203260EBE08E829
:01030C0022CE
:10037000AC071203C27FD012033FAF0412033FAF9A
:070380000512033F0203F820
:02028A00AD07BE
:10028C001203C27FD012033FAF0512033F1203C209
:10029C007FD112033F1202EFD2001203D11203F8E6
:0102AC00222F
:1002AD00E4FD7F6B1203707D077F191203701D7FB4
:1002BD001A1203707D187F1B1203707D017F1C02C3
:0202CD000370BC
:02022B00AC071E
:10022D0012028AAB07EC04FF12028AAD07EBFE7CCB
:10023D0000E42DFFEC3EFE7D401201147B007A00A0
:10024D00790BAD07AC06120003E4FE740B2EF8E635
:08025D00FF1204040EBE06F3BB
:010265002276
:100266007FF47E011202CF1202AD7F967E0012024B
:10027600CF7F411204047F3B12022B7FD07E0712F0
:0402860002CF80ED36
:060416001203EC02026675
:1001AB00020416E493A3F8E493A34003F68001F250
:1001BB0008DFF48029E493A3F85407240CC8C33355
:1001CB00C4540F4420C8834004F456800146F6DF24
:1001DB00E4800B010204081020408090041CE47E94
:1001EB00019360BCA3FF543F30E509541FFEE49319
:1001FB00A360010ECF54C025E060A840B8E493A3E0
:10020B00FAE493A3F8E493A3C8C582C8CAC583CA0A
:10021B00F0A3C8C582C8CAC583CADFE9DEE780BEC2
:01041F0000DC
:10010200BB010689828A83F0225002F722BBFE01DC
:02011200F322D6
:10011400C2D5EC30E709B2D5E4C39DFDE49CFCEE06
:1001240030E715B2D5E4C39FFFE49EFE12014AC333
:10013400E49DFDE49CFC800312014A30D507C3E42E
:060144009FFFE49EFE2275
:10014A00BC000BBE0029EF8DF084FFADF022E4CC99
:10015A00F875F008EF2FFFEE33FEEC33FCEE9DEC62
:10016A00984005FCEE9DFE0FD5F0E9E4CEFD22EDA8
:10017A00F8F5F0EE8420D21CFEADF075F008EF2FF2
:10018A00FFED33FD4007985006D5F0F222C398FDE3
:05019A000FD5F0EA2280
:00000001FF
